:020000040800F2
:10000000300800208901000857180008351700083B
:1000100055180008E70200083D1D00080000000018
:100020000000000000000000000000005F18000851
:10003000E9020008000000005D18000861180008CF
:10004000A3010008A3010008A3010008A301000800
:10005000A3010008A3010008A3010008A3010008F0
:10006000A3010008A3010008A3010008A3010008E0
:10007000A3010008A3010008A3010008A3010008D0
:10008000A3010008A3010008A3010008A3010008C0
:10009000A3010008A3010008A3010008A3010008B0
:1000A000A3010008A3010008A3010008A3010008A0
:1000B000A3010008A3010008A3010008A301000890
:1000C000A3010008A3010008A3010008A301000880
:1000D000A3010008311D0008A3010008A3010008C6
:1000E000A3010008A3010008A301000800F002F822
:1000F00000F03AF80AA090E8000C82448344AAF188
:100100000107DA4501D100F02FF8AFF2090EBAE885
:100110000F0013F0010F18BFFB1A43F0010318473B
:10012000E022000000230000103A24BF78C878C104
:10013000FAD8520724BF30C830C144BF04680C60ED
:10014000704700000023002400250026103A28BF35
:1001500078C1FBD8520728BF30C148BF0B60704739
:100160001FB51FBD10B510BD00F058F81146FFF7C0
:10017000F7FF01F031FE00F076F803B4FFF7F2FF6D
:1001800003BC00F07DF8000009488047094800479B
:10019000FEE7FEE7FEE7FEE7FEE7FEE7FEE7FEE737
:1001A000FEE7FEE704480549054A064B7047000094
:1001B000D9180008ED0000083002002030080020A7
:1001C00030040020300400204FF0000200B5134638
:1001D00094469646203922BFA0E80C50A0E80C5067
:1001E000B1F12001BFF4F7AF090728BFA0E80C5018
:1001F00048BF0CC05DF804EB890028BF40F8042B11
:1002000008BF704748BF20F8022B11F0804F18BF7D
:1002100000F8012B7047704770477047754600F033
:100220002BF8AE4605006946534620F00700854688
:1002300018B020B5FFF7B6FFBDE820404FF000062C
:100240004FF000074FF000084FF0000B21F00701BE
:10025000AC46ACE8C009ACE8C009ACE8C009ACE801
:10026000C0098D46704710B50446AFF300802046A4
:10027000BDE81040FFF781BF00487047CC01002067
:1002800001491820ABBEFEE72600020070470000BF
:1002900070B5044600688168C943C90717D18168F1
:1002A00021F00101816000F0CBFA05460AE000BFB1
:1002B00000F0C6FA401B022804D920688068C043B9
:1002C000C00706D020688068C043C007F0D0002077
:1002D00070BDA06A40F01000A062E06A40F001002A
:1002E000E062012070BDFEE770470000F8B5002411
:1002F000009490F824202546012A12D0012280F88B
:1003000024204A681F23072A0DD20668776B521EE5
:1003100002EB820293409F430B6893401F43776335
:1003200019E00220F8BD06680D2A0AD2376BD21FE9
:1003300002EB820293409F430B6893401F43376355
:1003400009E0F76A0D3A02EB820293409F430B6883
:1003500093401F43F7620A68072306680A2A0AD3F4
:10036000F7680A3A02EB420293409F438B6893403E
:100370001F43F76008E0376902EB420293409F4356
:100380008B6893401F4337610A68102A01D0112AF5
:1003900020D1124B02689A4217D193681B0219D4DC
:1003A000936843F4000393600968102912D10C4943
:1003B0000C4A0968B1FBF2F101EB8101490000E050
:1003C000491E00910029FBD104E0816A41F020011F
:1003D0008162012480F824502046F8BD00240140A9
:1003E0005C00002040420F002DE9F0414FF0000773
:1003F00004003D467ED0A06A002628B9E66284F853
:100400002460204600F07EF82046FFF741FFA16AF5
:10041000C90600D420B1A06A40F01000A06269E0D3
:10042000A16A21F4885141F00201A1626268E16988
:10043000237B0A4347EA43010A43A1684FF48077CC
:10044000B94209D0012907D05FF0000194F814C027
:10045000BCF1010F02D00AE03946F7E7F3B1A36A15
:1004600043F02003A362E36A43F00103E3622368DD
:10047000D3F804C02CF4694C4CEA010CC3F804C056
:1004800021688B68DFF870C003EA0C0313438B60AC
:10049000A168B9420BD0012909D00CE0DFF85CC09B
:1004A000A3690CEB43330B4343F40061DFE7218A7C
:1004B0000D05A5F580152168CB6A23F470032B4345
:1004C000CB62216889680E4B1940914208D1E662DF
:1004D000A16A21F0020141F00101A162BDE8F081B1
:1004E000A06A20F0020040F01000A062E06A40F034
:1004F0000100E0620120F1E7FDF7E1FF00E0FFFF0E
:10050000FE0E1FFF00B585B0002100910191029100
:10051000039100680E49884218D10E48816941F460
:1005200000718161816901F400710491816941F078
:10053000040181618069694600F004000490012093
:10054000009003200190044800F08AF805B000BD37
:1005500000240140001002400008014010B590F84E
:1005600021100022022905D00421816380F8202077
:10057000012010BD01680B6823F00E030B600168B9
:100580000B6823F001030B6090F84030C46B01212D
:1005900001FA03F3636080F8211080F820201046F0
:1005A00010BD000010B590F821100024022903D0DE
:1005B0000421816301243DE001680A6822F00E02F3
:1005C0000A6001680A6822F001020A601A4A01689A
:1005D000914201D1012121E0174A1432914201D107
:1005E00010211BE0144A2832914201D1891515E0EF
:1005F000114A3C32914201D189140FE00E4A503227
:10060000914202D14FF4803108E00B4A64329142AA
:1006100002D14FF4801101E04FF08071064A083A90
:100620005160012180F82110002180F82010416BD9
:1006300001B18847204610BD0800024070B504464D
:1006400000F0FEF80546601C02D00448007804441F
:1006500000F0F6F8401BA042FAD370BD5000002015
:100660002DE9F84FDFF8B8910024A9F1040B2346D7
:100670000F2709F1040AABF1040EC9E00125A540DA
:100680002A40AA427DD1674ED1F804C0ACEB0608DF
:10069000B44532D014DCBCF1030F3AD009DCBCF114
:1006A000000F2AD0BCF1010F1CD0BCF1020F31D1D8
:1006B0001DE0BCF1110F17D0BCF1120F2AD119E0C7
:1006C000B8F5881F19D006DCB8F5803F15D0B8F50D
:1006D000801F1FD111E0B8F5001F0ED0B8F5041F20
:1006E00018D10AE0CB6815E0CB681B1D12E0CB687F
:1006F00008330FE0CB680C330CE08B682BB1012B77
:100700004FF0080303D0456104E0042302E00561D3
:1007100000E00023FF2A01D8064601E000F10406AC
:100720004FEA840501D9A5F12005D6F8008007FA23
:1007300005FC28EA0C0803FA05F548EA0508C6F89E
:1007400000804D68ED0062D5374DAE6946F0010678
:10075000AE61AD6924F0030605F001050095334D47
:1007600006EB050CDCF80850A607360F07FA06F86A
:1007700025EA0805DFF8B880404503D14FF00008AE
:1007800017E044E0DFF8AC80404502D14FF00108AB
:100790000FE0DFF8A480404502D14FF0020808E0E6
:1007A000DFF89880404502D14FF0030801E04FF098
:1007B000040808FA06F848EA0508CCF808804D68ED
:1007C000D9F80060ED024D4601D5164300E096438E
:1007D0002E604D68DAF80060AD02554601D516432B
:1007E00000E096432E604D68DBF80060AD035D4687
:1007F00001D5164300E096432E604D68DEF8006098
:10080000ED03754601D5164300E096432E60641C47
:100810000D682A46E5407FF431AFBDE8F88F00004F
:1008200008040140000011100010024000000140C7
:1008300000080140000C014000100140001401407C
:10084000014880687047000050000020024881681D
:10085000027811448160704750000020074810B5AD
:10086000016841F010010160032000F075F80F20CD
:1008700000F006F800F024F8002010BD002002402F
:1008800070B50D4D04464FF47A712878B1FBF0F045
:100890000A490968B1FBF0F000F066FB48B9102C7A
:1008A00007D200222146501E00F036F800206C606E
:1008B00070BD012070BD0000500000205C000020D1
:1008C0000C4808B5816941F001018161816901F03D
:1008D00001010091C16941F08051C161C06900F01E
:1008E000805000900448416821F0E06141F00071BF
:1008F000416008BD0010024000000140002809DBF3
:1009000000F01F02012191404009800000F1E02029
:10091000C0F8001170470000F0B40E4B1B680C4685
:10092000C3F30223C3F10705042D00D90425191DC3
:10093000072901D2002300E0DB1E012606FA05F19B
:10094000491E214099409E40761E16403143F0BC1E
:1009500001F0F5B90CED00E0064900F00702086867
:100960004FF6FF03184040EA0220034A1043086094
:10097000704700000CED00E00000FA052DE9F84397
:1009800005460078354CC00754D0E0690026C00009
:1009900008D4E06940F08050E061E069012600F091
:1009A000805000902E480168C90512D40168804625
:1009B00041F480710160FFF743FF074605E000BF87
:1009C000FFF73EFFC01B642823D8D8F80000C005FD
:1009D000F6D5206A10F4407021D0A98801F4407146
:1009E00081421CD0206A1F49012220F440700A6015
:1009F00000220A602062C00711D0FFF721FF0746DE
:100A000041F2883808E000BFFFF71AFFC11B4145DB
:100A100002D90320BDE8F883206A8007F4D5206A54
:100A2000696820F44070084320621EB1E06920F03C
:100A30008050E0612878800705D56068A96820F4B7
:100A40004040084360602878C00605D56068E968C2
:100A500020F48000084360600020DBE700100240C3
:100A60000070004040044242704700002DE9F0470A
:100A70000F46050061D0434E306800F00700B842D1
:100A800009D2306820F0070038433060306800F049
:100A90000700B84251D128683B4C810712D5400766
:100AA00003D5606840F4E06060602878000703D5F3
:100AB000606840F4605060606068A96820F0F000F1
:100AC000084360602878C00728D06868012810D0E3
:100AD0002168022810D0890700292EDA616821F0E8
:100AE000030101436160FFF7ABFE804641F28839A4
:100AF0000DE021688903EFE78901EDE7FFF7A0FE2C
:100B0000A0EB0801494502D90320BDE8F0876068E1
:100B1000696800F00C00B0EB810FEFD1306800F095
:100B20000700B8420BD9306820F007003843306026
:100B3000306800F00700B84201D00120E5E72878CE
:100B4000400705D56068E96820F4E060084360600C
:100B50002878000706D56068296920F4605040EACB
:100B6000C100606000F03EF86168084AC1F30311FB
:100B7000515CC8400649086006480068FFF780FEDF
:100B80000020C2E70020024000100240E8230008D5
:100B90005C0000205400002001490120C864704717
:100BA000000042420448054900684968044AC1F30C
:100BB0000221515CC84070475C00002000100240D8
:100BC000F82300080448054900684968044AC1F34D
:100BD000C221515CC84070475C00002000100240F8
:100BE000F82300080E4A51680E4801F00C03042B4C
:100BF00011D0082B0FD10C48C1F38343C903C05C4B
:100C00000AD55168084AC1F34041921E515C054A19
:100C10005043B0FBF1F0704704494843704700006F
:100C20000010024000127A00D823000800093D009D
:100C300010B5044CA068000603D5FFF715FF80200F
:100C4000A07210BD001002402DE9F84F040070D0D2
:100C50002078C04DC00749D06868C0F381000128E2
:100C600007D06868C0F38100022809D16868C00312
:100C700006D52868800339D560680028E7D035E0BC
:100C80006068B0F5803F0BD010B1B0F5A02F11D047
:100C9000286820F480302860286820F4802002E052
:100CA000286840F480302860606890B1FFF7C8FD84
:100CB00006460AE0286840F480202860F0E700BF7C
:100CC000FFF7BEFD801B642873D828688003F7D522
:100CD0000CE0FFF7B5FD064605E000BFFFF7B0FDED
:100CE000801B6428F0D828688003F7D420789A4EB7
:100CF00080074FF001094FF0000839D5686810F0FF
:100D00000C0F07D06868C0F38100022809D1686819
:100D1000C00306D42868800714D52069012808D1AB
:100D200010E02069B0B1C6F80090FFF789FD0746D2
:100D300005E00AE1FFF784FDC01B0228C4D828683B
:100D40008007F7D52868616920F0F80040EAC10003
:100D500028600DE0C6F80080FFF772FD074604E04A
:100D6000FFF76EFDC01B022823D828688007F7D440
:100D7000207800072CD57948A169D9B1C0F8009036
:100D8000FFF75EFD074604E0FFF75AFDC01B02288F
:100D90000FD8686A8007F7D571484FF4FA51006898
:100DA000B0FBF1F0009000BF0098411E0091FAD214
:100DB0000EE080E0C0F80080FFF742FD074604E047
:100DC000FFF73EFDC01B022875D8686A8007F7D47C
:100DD0002078400760D5E8690027C00008D4E8699A
:100DE00040F08050E861E869012700F080500090F1
:100DF0005C480168C90513D40168834641F48071D9
:100E00000160FFF71DFD824606E000BFFFF718FDF9
:100E1000A0EB0A0064284ED8DBF80000C005F5D529
:100E2000E06801280AD008B1052813D0286A20F00C
:100E300001002862286A20F0040002E0286A40F0DD
:100E400001002862E06841F2883B98B1FFF7F8FCA6
:100E500082460BE0286A40F004002862EEE700BFFB
:100E6000FFF7EEFCA0EB0A0159455AD8286A800723
:100E7000F6D50CE0FFF7E4FC824605E0FFF7E0FC66
:100E8000A0EB0A0159454CD8286A8007F6D41FB157
:100E9000E86920F08050E861E06988B36968C1F3CF
:100EA0008101022944D00228C6F8608004D0FFF7EF
:100EB000C7FC044638E034E0FFF7C2FC074604E014
:100EC000FFF7BEFCC01B02282BD828688001F7D48E
:100ED000206AB0F5803F05D16868A16820F4003031
:100EE00008436860D4E908010843696821F4741173
:100EF00008436860C6F86090FFF7A2FC044606E06D
:100F000025E000BFFFF79CFC001B022809D82868D9
:100F10008001F7D51BE000BFFFF792FC001B022801
:100F200002D90320BDE8F88F28688001F4D40EE0D0
:100F30000128F7D06868226A00F48031914204D118
:100F4000616A00F47010884201D00120EAE70020B5
:100F5000E8E70000001002400000424280044242E4
:100F60005C0000200070004010B5401EB0F1807F92
:100F700001D3012010BD4FF0E02460610F21601704
:100F800000F0DDFE0020A06107202061002010BDE0
:100F900010B590F83C20012A22D0012280F83C2094
:100FA000CA688C6822F4407222434C6822F4806242
:100FB00022430C6822F4006222430C6922F480521E
:100FC00022434C6922F400522243C969002322F4CF
:100FD00080420A4301684A6480F83C30002010BD1A
:100FE000022010BD70B590F83C20012A26D00124C3
:100FF00080F83C40022280F83D2003685A689D68D2
:1010000022F070060A6832435A600D4B02689A4219
:1010100008D0B2F1804F05D00A4B9A4202D00A4B59
:101020009A4204D1496825F080031943916080F801
:101030003D40002180F83C10084670BD022070BD84
:10104000002C0140000400400008004000B585B0BD
:101050000021009101910291039100680B4988429F
:1010600012D10B48816941F00401816180696946B0
:1010700000F0040004904FF4706000900220019092
:1010800003900448FFF7ECFA05B000BD002C0140C6
:10109000001002400008014070B5044690F83C0082
:1010A00000260D4601280FD0012084F83C006AB1CB
:1010B000042A1DD0082A2FD00C2A3FD00126002058
:1010C00084F83C00304670BD022070BD206800F0FE
:1010D00049FC2068816941F00801816120688169CB
:1010E00021F004018161206881692A69114311E0BE
:1010F000206800F05FFC2068816941F40061816133
:101100002068816921F480618161206881692A6990
:1011100041EA02218161D2E7206800F077FC206873
:10112000C16941F00801C1612068C16921F0040171
:10113000C1612068C1692A69114311E0206800F08B
:1011400091FC2068C16941F40061C1612068C169F6
:1011500021F48061C1612068C1692A6941EA0221E4
:10116000C161ACE710B5040003D094F83D0010B1A4
:1011700007E0012010BD002084F83C00204600F06C
:101180001FF8022084F83D00211D206800F0A6FB16
:10119000012084F8460084F83E0084F83F0084F87B
:1011A000400084F8410084F8420084F8430084F849
:1011B000440084F8450084F83D00002010BD000084
:1011C00008B500680649884208D10648816941F49B
:1011D00000618161806900F40060009008BD00003A
:1011E000002C01400010024010B50446022249B113
:1011F00004290ED0082913D094F84100012816D0F4
:10120000012010BD94F83E000128F9D184F83E2059
:101210000FE094F83F000128F2D184F83F2008E065
:1012200094F840000128EBD184F8402001E084F8D4
:1012300041200122206800F087FB0F492068884286
:1012400003D1426C42F4004242642068884208D0D4
:10125000B0F1804F05D00949884202D00849884240
:1012600004D1816801F00701062903D0016841F02B
:1012700001010160002010BD002C0140000400406D
:101280000008004070477047F8B5016804460868D8
:10129000CA684B6910F00F0F4FF0000559D003F0EA
:1012A000010602F49077374365D0C10705D0D10518
:1012B00003D5616C41F001016164410705D5D9078F
:1012C00003D0616C41F002016164810705D5D90743
:1012D00003D0616C41F004016164010707D502F09D
:1012E0002001314303D0616C41F008016164616CFD
:1012F00000293AD0800604D5900602D5204600F099
:1013000002FC20684069616CC0F38010090700D4BA
:1013100060B3204600F0D0FB20684069400621D52C
:101320002068143050E8001F21F0400140E800120E
:10133000002AF5D1E06BA8B16D494163E06BFFF77E
:1013400031F9002811D0E06B416B01B0BDE8F040ED
:10135000084783060FD593060DD52046BDE8F84013
:1013600000F0D1BB2046FFF78EFFF8BD2046FFF707
:101370008AFF6564F8BD266B2023012E7CD1C6064A
:101380007AD5D60678D508684868009048694FF045
:101390000206400640D5E16B086840680004000C76
:1013A000E8D0A28D8242E5D9E085886920282DD039
:1013B00020680C3050E8001F21F4807140E80012D2
:1013C000002AF5D12068143050E8001F21F00101F7
:1013D00040E80012002AF5D12068143050E8001FC0
:1013E00021F0400140E80012002AF5D184F8423093
:1013F000256320680C3050E8001F21F0100140E800
:101400000012002AF5D1E06BFFF7A8F86663A08D03
:10141000E18D401A81B22AE0A08DE18D401A81B29F
:10142000E08D0028A6D00029A4D022680C3252E812
:10143000000F20F4907042E80007002FF5D12068DB
:10144000143050E8002F22F0010240E80027002F5E
:10145000F5D184F84230256320680C3050E8002F25
:1014600022F0100240E80023002BF5D166632046ED
:10147000FFF708FFF8BDFFE705062BD5150629D5B0
:1014800094F841002128F5D1A068B0F5805F01D122
:101490002069B0B1206A411C21622168007848604F
:1014A000E08C401E0004000CE084E3D12068C16899
:1014B00021F08001C1602068C16841F04001C16035
:1014C000D8E7206A0088C0F308004860206A801CC2
:1014D0002062E5E74006CDD55006CBD5CA68204648
:1014E00022F04002CA6084F8413000F022F9C1E7DE
:1014F000A91A000870B5040004D094F84100002532
:1015000010B106E0012070BD84F84050204600F084
:1015100023F8242084F841002068C16821F4005198
:10152000C160204600F050FB2068016921F4904121
:1015300001612068416921F02A0141612068C16888
:1015400041F40051C1606564202084F8410084F8B2
:1015500042006563002070BD30B585B00024009462
:101560000194029403942F4D03682F480221032213
:10157000AB4231D1836943F480438361836903F4CF
:1015800080430493836943F0080383618069274D96
:1015900000F0080004904020CDE900010392694664
:1015A0002846FFF75DF88020CDE90004694628460B
:1015B0000294FFF755F81E48416841F0E06141F0A0
:1015C00004014160002211462520FFF7A5F92520DE
:1015D000FFF794F905B030BD164DAB42FAD1C3699F
:1015E00043F40033C361C36903F400330493836994
:1015F00043F00403836180690F4D00F00400049000
:101600000420CDE90001039269462846FFF728F837
:101610000820CDE90004694628460294FFF720F827
:10162000D8E700000038014000100240000C0140E3
:1016300000000140004400400008014090F84230A2
:10164000202B01D00220704721B11AB1002303637F
:1016500000F016BB012070470D490E4AC868401CB7
:10166000C8604B791354642808DB002003461354E8
:10167000401C6428FBDB4FF0FF30C860012008707D
:10168000024603490348491D9038FFF7D7BF0000C1
:1016900000000020680100202DE9F843044690F87E
:1016A00041001F4616460D46202802D00220BDE804
:1016B000F8837DB176B100206064212084F8410078
:1016C000FFF7BEF8A6848046E684A068B0F5805F88
:1016D00002D003E00120EAE7206910B12E46002580
:1016E0000EE000260CE08021204600F0E4FAA0B9CC
:1016F000AEB116F8010B21684860E08C401EE08412
:10170000E08C43464FF0000200970028EBD14FF0E9
:101710004001204600F0CFFA30B10320C7E735F88A
:10172000020BC0F30800E6E7202084F84100002007
:10173000BDE77047FEE700003EB500241048009466
:10174000019402940D4984600160047304750125BD
:1017500005614FF460214460C161FEF745FE08B1A8
:1017600072B6FEE7CDE90045694605480294FEF7EA
:10177000BDFD002801D072B6FEE73EBD0024014049
:101780006000002010B592B000240F941C21684620
:101790001094FEF719FD202107A8FEF715FD2C482F
:1017A0002A49C0E900144FF6FF71C0E90241046103
:1017B00044618461FFF7D6FC08B172B6FEE70F946E
:1017C0000FA923481094FFF70DFC08B172B6FEE78D
:1017D0006020CDE90004029403940494059400224F
:1017E00069461B480694FFF757FC08B172B6FEE73E
:1017F000042269461648FFF74FFC08B172B6FEE7AF
:10180000082269461248FFF747FC08B172B6FEE7A6
:101810000C2269460E48FFF73FFC08B172B6FEE79E
:101820000794089409944FF400500A94CDE90B40B2
:1018300007A907480E94FFF7ABFB08B172B6FEE7A5
:101840000348FFF703FC12B010BD0000002C01405C
:1018500090000020FEE7FFF7EBF9FEE770477047C6
:10186000FEF7F4BF30B593B028216846FEF7ACFC14
:1018700014210AA8FEF7A8FC0024012108040F94F3
:10188000109412940491CDE90010CDE9080411944C
:101890000294022507956846FFF7D6F908B172B69B
:1018A000FEE70F20CDE90A054FF48060CDE90C403A
:1018B00000210AA80E94FFF7D9F808B172B6FEE726
:1018C0000FA80F951194FFF759F808B172B6FEE70B
:1018D000FFF762F913B030BD70470000F0B5026841
:1018E000164B174C174D4FF08047984205D0B84221
:1018F00003D0A04201D0A84203D122F070064A686A
:101900003243984205D0B84203D0A04201D0A84249
:1019100003D122F44074CA6822434C6922F0800249
:10192000224302608A68C2620A688262984201D1D8
:101930000969016301214161F0BD0000002C0140F3
:10194000000400400008004010B501F01F03012111
:10195000046A99408C430462016A9A40114301620F
:1019600010BD000030B5036A026A22F00102026273
:101970004268846924F073050C682C4323F0020547
:101980008B682B430A4DA8420BD123F00805CB6886
:1019900022F440722B434D6923F0040315438A69F6
:1019A0002A434260846149684163036230BD00009C
:1019B000002C014030B5026A036A23F01003036271
:1019C000436884690D6824F4E64444EA05248D687C
:1019D00022F0200242EA05120B4DA8420ED1CD683A
:1019E00022F0800242EA05124D6923F4406343EA83
:1019F00085038D6922F0400243EA850343608461D8
:101A000049688163026230BD002C014030B5036A31
:101A1000026A22F4807202624268C46923F400738D
:101A200024F073050C682C438D6843EA05230C4DA4
:101A3000A8420ED1CD6823F4006343EA05234D6923
:101A400022F4405242EA05128D6923F4806342EA8F
:101A500005124260C4614968C163036230BD000081
:101A6000002C014030B5046A026A22F480520262FE
:101A70004268C3690D6823F4E64343EA05238D6891
:101A800024F4005444EA0534064DA84204D14D69BB
:101A900022F4804242EA85124260C36149680164CF
:101AA000046230BD002C014010B5406A0021C185A0
:101AB000C184FFF7E8FB10BD01680C3151E8002F2D
:101AC00022F4907241E80023002BF5D10168143113
:101AD00051E8002F22F0010241E80023002BF5D14C
:101AE000016B012909D101680C3151E8002F22F066
:101AF000100241E80023002BF5D1202180F842108C
:101B000000210163704708B590F84210222901D0E6
:101B1000022008BD82684FF480539A4201D10169C6
:101B200021B1816A9A421BD04AB10AE00268816AF7
:101B30005268C2F308020A80816A891C08E00269BF
:101B400072B10268526802F07F020A70816A491C11
:101B50008162C18D491E0904090CC18503D01BE0B7
:101B600002685268F1E70168CA6822F02002CA6080
:101B70000168CA6822F48072CA6001684A6922F06A
:101B800001024A61202180F8421000214163026B6A
:101B9000012A03D0FFF760FD002008BD0163016842
:101BA0000C3151E8002F22F0100241E80023002BF5
:101BB000F5D101680A68D20602D50A684968009121
:101BC000818DFFF75FFBE7E770B5044600680169A8
:101BD000E26821F44051114301612169A068084382
:101BE000616908432168CA6841F20C639A43024361
:101BF000CA6020684169A26921F4407111434161C2
:101C00001E492068884202D1FEF7DCFF01E0FEF7A2
:101C1000C9FF00EBC00101EB001260686421800085
:101C2000B2FBF0F3B3FBF1F36FF018067343B2FBB2
:101C3000F0F5B2FBF0F605EB8305322303EB051557
:101C4000B5FBF1F5B6FBF1F605F0F00505EB061571
:101C5000B2FBF0F6B2FBF0F0B0FBF1F06FF018025F
:101C6000504306EB800003EB0010B0FBF1F021685D
:101C700000F00F002844886070BD0000003801406B
:101C800081628285C28500214164222180F8421050
:101C9000016921B10168CA6842F48072CA600168B2
:101CA0004A6942F001024A610068C16841F02001BE
:101CB000C160002070472DE9F041984617460E4656
:101CC0000446069D27E0681C25D02DB1FEF7B8FD1F
:101CD000A0EB0800A8421ED920680C3050E8001F75
:101CE00021F4D07140E80012002AF5D120681430A8
:101CF00050E8001F21F0010140E80012002AF5D150
:101D0000202084F8410084F84200002084F840003C
:101D10000320BDE8F0812068006836EA000004D0A6
:101D20000020B842CFD00020F3E70120F9E70000FF
:101D30000148FFF7A9BA0000D8000020FEE7090714
:101D4000090E002804DB00F1E02080F80014704741
:101D500000F00F0000F1E02080F8141D7047000033
:101D600010B54FF4FA742046FEF768FC6423012294
:101D700017491848FFF790FC154964230122491CB4
:101D80001448FFF789FC2046FEF758FC6423012223
:101D90000F491048FFF780FC0D4964230122891C7C
:101DA0000C48FFF779FC2046FEF748FC642301222B
:101DB00007490848FFF770FC054964230122C91C44
:101DC0000448FFF769FC2046BDE81040FEF736BC2A
:101DD00001000020200100201FB5FEF73FFDFFF7A6
:101DE00041FD8648816941F020018161816901F0EE
:101DF00020010091816941F004018161816901F054
:101E000004010091816941F008018161806900F05D
:101E100008000090FFF790FCFFF7B4FC7948784980
:101E2000002401604FF4E131C0E901140C25C460C5
:101E3000C0E904458461C461FFF75CFB08B172B678
:101E4000FEE7704870494838A04601604FF41651CB
:101E5000C0E90114C460C0E904458461C461FFF7AE
:101E600049FB08B172B6FEE7664800219038FFF7DB
:101E7000BBF9644804219038FFF7B6F9614808219E
:101E80009038FFF7B1F95F480C219038FFF7ACF9B3
:101E9000FFF766FF5B4801225C494838FFF7CEFB3D
:101EA000DFF86091594CDFF868A109F14809641F17
:101EB0002078012871D1E66819F806000A286AD14D
:101EC000A06803902069029060690190206B0090E7
:101ED0003546771FD4F834B04CE04A2810D10020A2
:101EE0006FF02F0205E04B5D00EB800002EB40003D
:101EF00018446D1CB542F6DB40014FF0FF350390EE
:101F000019F80500582810D0592814D04E2819D097
:101F10004D281DD0462822D0472823D0522824D02F
:101F20004C2825D0532825D158E04FF07C515846F5
:101F300000F0AEF804E04FF07C51584600F0D6F9BE
:101F4000834617E04FF07C51009800F0A1F804E0C0
:101F50004FF07C51009800F0C9F900900AE06FF052
:101F60000E0000E00F20019004E06FF00E0000E092
:101F70000F2002906D1EBD4204DB19F80500494692
:101F80000A28AAD10398A060029820610198606194
:101F90000098C4E90C0B84F80080A5680DB3E16BD0
:101FA000E06900F0D7F8A062216CA06900F0D2F8D7
:101FB0006062616C206A00F0CDF8E062E069504533
:101FC00007DC144A904204D8A069504501DC9042D5
:101FD0000DD900231A46194618460CE0002002903D
:101FE000C1E7C4F828804046C4F82480E5E72B46C2
:101FF0001A461146084600F00FF859E70010024053
:10200000004400402001002000380140050000206D
:1020100000002042000020C210B5142800DD60300E
:10202000142B00DD8033142900DDC03143F69824E1
:10203000A04201DD204602E0002800DA0020A14293
:1020400001DD214602E0002900DA0021A24201DD83
:10205000224602E0002A00DA0022A34201DD2346E4
:1020600002E0002B00DA0023084C02F57A522260CD
:10207000221D01F57A511160111D00F57A5008609A
:10208000081D03F57A53036010BD0000342C014095
:1020900090EA010F48BF81F0004100F12E81421A01
:1020A0003CBF801A89184FEAD0524FF07F4C1CEA8F
:1020B000410FA2EBD15318BF9CEA026F00F03B80A6
:1020C0004FF0004C4CEA00204CEA012121FA03FCBD
:1020D00010EB0C0C1ED202F1FF325FEA1C2040EB29
:1020E000C25038BF70471CF07F0F4FEA400C18BF3A
:1020F000BCF17F4F38BF7047C3F12003994008BF40
:1021000020F00100BCF17F4F38BF7047A0F1C04004
:1021100000F0E7B84FEA3C00000A40EBC25028BF8D
:102120001CF0FF0F4FEA400CE6D018BFBCF17F4F08
:1021300038BF7047EAE79CEA026F05D010EA5C0FEF
:1021400008BF00F00040704710B500F084F800BFF1
:1021500064FBBE3E4FF47F0C1CEAD0121EBF1CEA8B
:10216000D11392EA0C0F93EA0C0F00F0478090EA2B
:10217000010F48BF42F480724FF0004C4CEA00203F
:102180004CEA012102EB0302A0FB0113A2F50002BD
:10219000002918BF43F001035B0028BF4FEA330357
:1021A00042EB22425FEA132C4CEBC2502EBFBCEB39
:1021B000436FB2F57C0F70474FEA036CBCF1004FE0
:1021C00008BF20F00100B2F57C0F38BF70470BD577
:1021D00082F0FF0212F5803FC8BF704700F1C04097
:1021E000D8BF00F00040704700F5000C5FEA4C0CCF
:1021F00048BF7047B0F1C04000F073B890EA010FDB
:102200000CEAD11348BF42F48072624538BF63457F
:1022100004D280EA010000F00040704710B500F0E1
:102220001AF800BF8900013E00F007B800F009B8B5
:102230005FEA410C5FEA1C6C08D080EA010000F004
:1022400050B85FEA400C5FEA1C6CF6D14FF00040DA
:10225000A0F5800070470EF1020E2EF0030E5EF81E
:10226000044B244204D44FEA4102B2F17F4F11D80B
:102270004FEA4003B3F17F4F0CD80ED14FEAD07C28
:10228000B2F17F4F0CEB4C0C0CF1020C08BF4CEB85
:10229000D17C04E04FF0080C01E04FEAD17C0CEB5C
:1022A0004C0324FA03F404F00704B4F1040C06D23E
:1022B0000EEB840CBDE810404CF0010C6047DFE8E9
:1022C0000CF0070802024FF00040A0F5800010BD9E
:1022D0000846420018BFD2F1807288BF00F000406B
:1022E00010BDFF2141EAD050C005704790EA010FB0
:1022F00048BF81F000413FF5D2AE421A04D882F0C7
:102300000042A0EB020011444FEAD0524FF07F4C44
:102310001CEA410FA2EBD15318BF9CEA026F4AD0CE
:102320004FF0004C4CEA00204CEA012121FA03FC5A
:10233000B0EB0C0C0FD412F0FE0F36D05FEA4C005D
:102340001DD5001240EBC25038BF70471CF03F0F44
:1023500018BF70470BE0A2F101025FEA1C2040EBBE
:10236000C25038BF70471CF07F0F18BF7047C3F1D1
:102370002003994014BF401E20F0010070478008E0
:102380004FEA122308BF7047B0FA80FCA2EB0C02A0
:10239000CCF1280C60FA0CF093EA122F04BF00EB8A
:1023A000C25070474FEAC3707047130A5FEADC10EF
:1023B00008BF7047F6E79CEA026F04D010EA5C0F92
:1023C00008BF0020704710B5FFF745FF40DFF63E1D
:1023D00081F0004070470102020304050607080966
:1023E0000A0B0C0D0E0F1010000000000000000082
:1023F00001020304060708090000000001020304AB
:1024000020240008000000206000000028010008CF
:102410008024000860000020D0070000440100086C
:1024200000A554515500000000000000FFFFFFFF11
:10243000000000000000000000000000000000009C
:10244000000000000000000000000000000000008C
:102450000000000000000000000000000000F0414B
:102460000000F04100008C4200000000000000006D
:102470000100000010000000000000000024F40033
:04000005080000ED02
:00000001FF
